:100000000C942A000C943C000C943C000C943C0092
:100010000C943C000C943C000C943C000C943C0070
:100020000C943C000C943C000C943C000C943C0060
:100030000C943C000C943E000C943C000C943C004E
:100040000C943C000C943C000C943C000C943C0040
:100050000C943C0011241FBECFE5D8E0DEBFCDBF1D
:1000600020E0A0E6B0E001C01D92A136B207E1F7A2
:100070000E944D000C9490000C9400001F920F926F
:100080000FB60F9211248F938CB1809360008F91E3
:100090000F900FBE0F901F90189584B3876084BB9C
:1000A00085B38C7F85BBAA9A8D9A95988FB582600F
:1000B0008FBD8EB588618EBD8FE19EE497BD86BDF4
:1000C0008EB581608EBD8FB5806C8FBD789410BC6D
:1000D00089E189B988E18AB95B9A80B5866080BD7B
:1000E000579A86B597B5805293409BBD8ABD2FE342
:1000F0008DE093E0215080409040E1F700C0000087
:1001000086B597B5885998409BBD8ABD2FE38DE091
:1001100093E0215080409040E1F700C00000E1CF23
:04012000F894FFCF81
:00000001FF
