:100000000C942A000C943C000C943C000C943C0092
:100010000C943C000C943C000C943C000C943C0070
:100020000C943C000C943C000C943C000C943C0060
:100030000C943C000C946B000C943C000C943C0021
:100040000C943E000C943C000C943C000C943C003E
:100050000C943C0011241FBECFE5D8E0DEBFCDBF1D
:1000600020E0A0E6B0E001C01D92A636B207E1F79D
:100070000E947A000C94DE000C9400001F920F92F4
:100080000FB60F9211242F938F939F93EF93FF93AB
:10009000A89B02C0A99915C0E5B384B195B1E370DE
:1000A000F0E0EF59FF4F80832FE38DE093E0215084
:1000B00080409040E1F700C0000085B38F5F85BBB2
:1000C000369AFF91EF919F918F912F910F900FBED4
:1000D0000F901F9018951F920F920FB60F92112438
:1000E0008F938CB1809360008F910F900FBE0F9013
:1000F0001F9018951092660084B3876084BB85B307
:100100008C7F85BBAA9A8D9A95988FB582608FBD9A
:100110008EB588618EBD8FE19EE497BD86BD8EB59C
:1001200081608EBD8FB5806C8FBDD098D898339A82
:100130003D98329A87B1806C87B9379A10BC89E1B3
:1001400089B98AB188618AB95B9A80B5866080BDB9
:10015000579A7894369A86B597B5805293409BBD4E
:100160008ABD2FE38DE093E0215080409040E1F77D
:1001700000C0000086B597B5885998409BBD8ABDE0
:100180002FE38DE093E0215080409040E1F700C0E4
:100190000000A89BE0CFA99BDECFE0E091E09E0F9E
:1001A000F0E0EF59FF4F80815D9BFECF8CB9E92FC6
:1001B0008111F4CF85B38C7F85BBCCCFF894FFCF72
:00000001FF
