:100000000C942A000C943C000C943C000C943C0092
:100010000C943C000C943C000C943C000C943C0070
:100020000C943C000C943C000C943C000C943C0060
:100030000C943C000C94A0000C943C000C943C00EC
:100040000C943E000C943C000C943C000C943C003E
:100050000C943C0011241FBECFE5D8E0DEBFCDBF1D
:1000600020E0A0E6B0E001C01D92A936B207E1F79A
:100070000E94AF000C9420010C9400001F920F927C
:100080000FB60F9211242F935F936F937F938F93EB
:100090009F93AF93BF93EF93FF93809167009091ED
:1000A0006800049729F4109268001092670039C024
:1000B00084B125B1E0916700F0916800EF59FF4FDE
:1000C00090E0922B65E070E00E940C0160838091CB
:1000D0006700909168008130910561F024F4892BCC
:1000E00069F481E40AC08230910531F0039731F45C
:1000F00080E403C082E401C083E487B98091670093
:1001000090916800019690936800809367002FE3B8
:100110008DE093E0215080409040E1F700C0000066
:10012000369AFF91EF91BF91AF919F918F917F91FF
:100130006F915F912F910F900FBE0F901F901895A8
:100140001F920F920FB60F9211248F938CB1809350
:1001500060008F910F900FBE0F901F9018958AE04E
:10016000809366001092670081E084BB15BA8D9A77
:1001700095988FB582608FBD8EB588618EBD8FE1F9
:100180009EE497BD86BD8EB581608EBD8FB5806CB7
:100190008FBD1ABA1BBA339A3D9887B1807E87B952
:1001A000329A3E9A379A10BC89E189B98AB188613E
:1001B0008AB95B9A80B5866080BD579A789486B577
:1001C00097B5805293409BBD8ABD2FE38DE093E0AD
:1001D000215080409040E1F700C0000086B597B5FF
:1001E000885998409BBD8ABD2FE38DE093E0215054
:1001F00080409040E1F700C00000E0E091E09E0FF9
:10020000F0E0EF59FF4F80815D9BFECF8CB9E92F65
:100210008111F4CF369AD3CFAA1BBB1B51E107C083
:10022000AA1FBB1FA617B70710F0A61BB70B881F86
:10023000991F5A95A9F780959095BC01CD01089515
:04024000F894FFCF60
:00000001FF
